{
  "contractName": "OracleContract",
  "abi": [
    {
      "inputs": [],
      "stateMutability": "nonpayable",
      "type": "constructor"
    },
    {
      "anonymous": false,
      "inputs": [],
      "name": "callBackNewData",
      "type": "event"
    },
    {
      "inputs": [],
      "name": "numberAsteroids",
      "outputs": [
        {
          "internalType": "uint256",
          "name": "",
          "type": "uint256"
        }
      ],
      "stateMutability": "view",
      "type": "function",
      "constant": true
    },
    {
      "inputs": [],
      "name": "update",
      "outputs": [],
      "stateMutability": "nonpayable",
      "type": "function"
    },
    {
      "inputs": [
        {
          "internalType": "uint256",
          "name": "_num",
          "type": "uint256"
        }
      ],
      "name": "setNumberAteroids",
      "outputs": [],
      "stateMutability": "nonpayable",
      "type": "function"
    }
  ],
  "bytecode": "0x608060405234801561001057600080fd5b50336000806101000a81548173ffffffffffffffffffffffffffffffffffffffff021916908373ffffffffffffffffffffffffffffffffffffffff160217905550610329806100606000396000f3fe608060405234801561001057600080fd5b50600436106100415760003560e01c8063829400cb14610046578063a2e6204514610064578063f297b1fa1461006e575b600080fd5b61004e61008a565b60405161005b9190610278565b60405180910390f35b61006c610090565b005b610088600480360381019061008391906101f9565b61014c565b005b60015481565b60008054906101000a900473ffffffffffffffffffffffffffffffffffffffff1673ffffffffffffffffffffffffffffffffffffffff163373ffffffffffffffffffffffffffffffffffffffff161461011e576040517f08c379a000000000000000000000000000000000000000000000000000000000815260040161011590610258565b60405180910390fd5b7f42dee34d84528abda3a60cbd3a7289826047d887d8cdbd07ae4e4914e3658cda60405160405180910390a1565b60008054906101000a900473ffffffffffffffffffffffffffffffffffffffff1673ffffffffffffffffffffffffffffffffffffffff163373ffffffffffffffffffffffffffffffffffffffff16146101da576040517f08c379a00000000000000000000000000000000000000000000000000000000081526004016101d190610258565b60405180910390fd5b8060018190555050565b6000813590506101f3816102dc565b92915050565b60006020828403121561020f5761020e6102ae565b5b600061021d848285016101e4565b91505092915050565b6000610233600a83610293565b915061023e826102b3565b602082019050919050565b610252816102a4565b82525050565b6000602082019050818103600083015261027181610226565b9050919050565b600060208201905061028d6000830184610249565b92915050565b600082825260208201905092915050565b6000819050919050565b600080fd5b7f4f6e6c79206f776e657200000000000000000000000000000000000000000000600082015250565b6102e5816102a4565b81146102f057600080fd5b5056fea26469706673582212209bef5ace87478581e4e8cb58f3104126e6473189a5980988506d965f3dd82c0f64736f6c63430008060033",
  "immutableReferences": {},
  "source": "// SPDX-License-Identifier: MIT\r\npragma solidity >=0.4.22 <0.9.0;\r\n\r\ncontract OracleContract {\r\n\r\n  address owner;\r\n  uint public numberAsteroids;\r\n\r\n  event callBackNewData();\r\n\r\n  modifier onlyOwner() {\r\n    require(msg.sender == owner, 'Only owner');\r\n    _;\r\n  }\r\n\r\n  constructor() {\r\n    owner = msg.sender;\r\n  }\r\n\r\n  function update() public onlyOwner {\r\n    emit callBackNewData();\r\n  }\r\n\r\n  function setNumberAteroids(uint _num) public onlyOwner {\r\n    numberAsteroids = _num;\r\n  }\r\n\r\n}",
  "sourcePath": "C:\\Users\\USUARIO\\Desktop\\dapps\\myoracle\\contracts\\OracleContract.sol",
  "compiler": {
    "name": "solc",
    "version": "0.8.6+commit.11564f7e.Emscripten.clang"
  },
  "schemaVersion": "3.4.3",
  "updatedAt": "2022-01-08T03:20:28.184Z",
  "networkType": "ethereum",
  "devdoc": {
    "kind": "dev",
    "methods": {},
    "version": 1
  },
  "userdoc": {
    "kind": "user",
    "methods": {},
    "version": 1
  }
}